{
  "_format": "hh-sol-artifact-1",
  "contractName": "RandomIpfs",
  "sourceName": "contracts/RandomIpfs.sol",
  "abi": [
    {
      "inputs": [
        {
          "internalType": "address",
          "name": "vrfCoordinatorV2",
          "type": "address"
        },
        {
          "internalType": "uint64",
          "name": "subscriptionId",
          "type": "uint64"
        },
        {
          "internalType": "bytes32",
          "name": "keyHash",
          "type": "bytes32"
        },
        {
          "internalType": "uint32",
          "name": "callBackGasLimit",
          "type": "uint32"
        },
        {
          "internalType": "string[3]",
          "name": "dogTokenUris",
          "type": "string[3]"
        },
        {
          "internalType": "uint256",
          "name": "mintFee",
          "type": "uint256"
        }
      ],
      "stateMutability": "nonpayable",
      "type": "constructor"
    },
    {
      "inputs": [
        {
          "internalType": "address",
          "name": "sender",
          "type": "address"
        },
        {
          "internalType": "uint256",
          "name": "tokenId",
          "type": "uint256"
        },
        {
          "internalType": "address",
          "name": "owner",
          "type": "address"
        }
      ],
      "name": "ERC721IncorrectOwner",
      "type": "error"
    },
    {
      "inputs": [
        {
          "internalType": "address",
          "name": "operator",
          "type": "address"
        },
        {
          "internalType": "uint256",
          "name": "tokenId",
          "type": "uint256"
        }
      ],
      "name": "ERC721InsufficientApproval",
      "type": "error"
    },
    {
      "inputs": [
        {
          "internalType": "address",
          "name": "approver",
          "type": "address"
        }
      ],
      "name": "ERC721InvalidApprover",
      "type": "error"
    },
    {
      "inputs": [
        {
          "internalType": "address",
          "name": "operator",
          "type": "address"
        }
      ],
      "name": "ERC721InvalidOperator",
      "type": "error"
    },
    {
      "inputs": [
        {
          "internalType": "address",
          "name": "owner",
          "type": "address"
        }
      ],
      "name": "ERC721InvalidOwner",
      "type": "error"
    },
    {
      "inputs": [
        {
          "internalType": "address",
          "name": "receiver",
          "type": "address"
        }
      ],
      "name": "ERC721InvalidReceiver",
      "type": "error"
    },
    {
      "inputs": [
        {
          "internalType": "address",
          "name": "sender",
          "type": "address"
        }
      ],
      "name": "ERC721InvalidSender",
      "type": "error"
    },
    {
      "inputs": [
        {
          "internalType": "uint256",
          "name": "tokenId",
          "type": "uint256"
        }
      ],
      "name": "ERC721NonexistentToken",
      "type": "error"
    },
    {
      "inputs": [
        {
          "internalType": "address",
          "name": "have",
          "type": "address"
        },
        {
          "internalType": "address",
          "name": "want",
          "type": "address"
        }
      ],
      "name": "OnlyCoordinatorCanFulfill",
      "type": "error"
    },
    {
      "inputs": [],
      "name": "RandomIpfs__NOT_ENOUGH_ETH_ENTERED",
      "type": "error"
    },
    {
      "inputs": [],
      "name": "RandomIpfs__OUT_OF_RANGE",
      "type": "error"
    },
    {
      "inputs": [],
      "name": "RandomIpfs__OwnableUnauthorizedAccount",
      "type": "error"
    },
    {
      "inputs": [],
      "name": "RandomIpfs__YOU_ARE_NOT_THE_OWNER_OF_THE_CONTRACT",
      "type": "error"
    },
    {
      "anonymous": false,
      "inputs": [
        {
          "indexed": true,
          "internalType": "address",
          "name": "owner",
          "type": "address"
        },
        {
          "indexed": true,
          "internalType": "address",
          "name": "approved",
          "type": "address"
        },
        {
          "indexed": true,
          "internalType": "uint256",
          "name": "tokenId",
          "type": "uint256"
        }
      ],
      "name": "Approval",
      "type": "event"
    },
    {
      "anonymous": false,
      "inputs": [
        {
          "indexed": true,
          "internalType": "address",
          "name": "owner",
          "type": "address"
        },
        {
          "indexed": true,
          "internalType": "address",
          "name": "operator",
          "type": "address"
        },
        {
          "indexed": false,
          "internalType": "bool",
          "name": "approved",
          "type": "bool"
        }
      ],
      "name": "ApprovalForAll",
      "type": "event"
    },
    {
      "anonymous": false,
      "inputs": [
        {
          "indexed": false,
          "internalType": "uint256",
          "name": "_fromTokenId",
          "type": "uint256"
        },
        {
          "indexed": false,
          "internalType": "uint256",
          "name": "_toTokenId",
          "type": "uint256"
        }
      ],
      "name": "BatchMetadataUpdate",
      "type": "event"
    },
    {
      "anonymous": false,
      "inputs": [
        {
          "indexed": false,
          "internalType": "uint256",
          "name": "_tokenId",
          "type": "uint256"
        }
      ],
      "name": "MetadataUpdate",
      "type": "event"
    },
    {
      "anonymous": false,
      "inputs": [
        {
          "indexed": true,
          "internalType": "uint256",
          "name": "tokenId",
          "type": "uint256"
        },
        {
          "indexed": true,
          "internalType": "enum RandomIpfs.Breed",
          "name": "breed",
          "type": "uint8"
        },
        {
          "indexed": false,
          "internalType": "address",
          "name": "minter",
          "type": "address"
        }
      ],
      "name": "NftMinted",
      "type": "event"
    },
    {
      "anonymous": false,
      "inputs": [
        {
          "indexed": true,
          "internalType": "uint256",
          "name": "requestId",
          "type": "uint256"
        },
        {
          "indexed": true,
          "internalType": "address",
          "name": "requester",
          "type": "address"
        }
      ],
      "name": "NftRequested",
      "type": "event"
    },
    {
      "anonymous": false,
      "inputs": [
        {
          "indexed": true,
          "internalType": "address",
          "name": "from",
          "type": "address"
        },
        {
          "indexed": true,
          "internalType": "address",
          "name": "to",
          "type": "address"
        },
        {
          "indexed": true,
          "internalType": "uint256",
          "name": "tokenId",
          "type": "uint256"
        }
      ],
      "name": "Transfer",
      "type": "event"
    },
    {
      "inputs": [
        {
          "internalType": "address",
          "name": "to",
          "type": "address"
        },
        {
          "internalType": "uint256",
          "name": "tokenId",
          "type": "uint256"
        }
      ],
      "name": "approve",
      "outputs": [],
      "stateMutability": "nonpayable",
      "type": "function"
    },
    {
      "inputs": [
        {
          "internalType": "address",
          "name": "owner",
          "type": "address"
        }
      ],
      "name": "balanceOf",
      "outputs": [
        {
          "internalType": "uint256",
          "name": "",
          "type": "uint256"
        }
      ],
      "stateMutability": "view",
      "type": "function"
    },
    {
      "inputs": [
        {
          "internalType": "uint256",
          "name": "tokenId",
          "type": "uint256"
        }
      ],
      "name": "getApproved",
      "outputs": [
        {
          "internalType": "address",
          "name": "",
          "type": "address"
        }
      ],
      "stateMutability": "view",
      "type": "function"
    },
    {
      "inputs": [
        {
          "internalType": "uint256",
          "name": "moddedRng",
          "type": "uint256"
        }
      ],
      "name": "getBreedFromRandomNum",
      "outputs": [
        {
          "internalType": "enum RandomIpfs.Breed",
          "name": "",
          "type": "uint8"
        }
      ],
      "stateMutability": "pure",
      "type": "function"
    },
    {
      "inputs": [],
      "name": "getChancesArray",
      "outputs": [
        {
          "internalType": "uint256[3]",
          "name": "",
          "type": "uint256[3]"
        }
      ],
      "stateMutability": "pure",
      "type": "function"
    },
    {
      "inputs": [
        {
          "internalType": "uint256",
          "name": "index",
          "type": "uint256"
        }
      ],
      "name": "getDogTokenUris",
      "outputs": [
        {
          "internalType": "string",
          "name": "",
          "type": "string"
        }
      ],
      "stateMutability": "view",
      "type": "function"
    },
    {
      "inputs": [],
      "name": "getMintFee",
      "outputs": [
        {
          "internalType": "uint256",
          "name": "",
          "type": "uint256"
        }
      ],
      "stateMutability": "view",
      "type": "function"
    },
    {
      "inputs": [],
      "name": "getOwner",
      "outputs": [
        {
          "internalType": "address",
          "name": "",
          "type": "address"
        }
      ],
      "stateMutability": "view",
      "type": "function"
    },
    {
      "inputs": [],
      "name": "getTokenCounter",
      "outputs": [
        {
          "internalType": "uint256",
          "name": "",
          "type": "uint256"
        }
      ],
      "stateMutability": "view",
      "type": "function"
    },
    {
      "inputs": [
        {
          "internalType": "address",
          "name": "owner",
          "type": "address"
        },
        {
          "internalType": "address",
          "name": "operator",
          "type": "address"
        }
      ],
      "name": "isApprovedForAll",
      "outputs": [
        {
          "internalType": "bool",
          "name": "",
          "type": "bool"
        }
      ],
      "stateMutability": "view",
      "type": "function"
    },
    {
      "inputs": [],
      "name": "name",
      "outputs": [
        {
          "internalType": "string",
          "name": "",
          "type": "string"
        }
      ],
      "stateMutability": "view",
      "type": "function"
    },
    {
      "inputs": [
        {
          "internalType": "uint256",
          "name": "tokenId",
          "type": "uint256"
        }
      ],
      "name": "ownerOf",
      "outputs": [
        {
          "internalType": "address",
          "name": "",
          "type": "address"
        }
      ],
      "stateMutability": "view",
      "type": "function"
    },
    {
      "inputs": [
        {
          "internalType": "uint256",
          "name": "requestId",
          "type": "uint256"
        },
        {
          "internalType": "uint256[]",
          "name": "randomWords",
          "type": "uint256[]"
        }
      ],
      "name": "rawFulfillRandomWords",
      "outputs": [],
      "stateMutability": "nonpayable",
      "type": "function"
    },
    {
      "inputs": [],
      "name": "requestNft",
      "outputs": [
        {
          "internalType": "uint256",
          "name": "requestId",
          "type": "uint256"
        }
      ],
      "stateMutability": "payable",
      "type": "function"
    },
    {
      "inputs": [
        {
          "internalType": "uint256",
          "name": "",
          "type": "uint256"
        }
      ],
      "name": "s_requestIdToSender",
      "outputs": [
        {
          "internalType": "address",
          "name": "",
          "type": "address"
        }
      ],
      "stateMutability": "view",
      "type": "function"
    },
    {
      "inputs": [
        {
          "internalType": "address",
          "name": "from",
          "type": "address"
        },
        {
          "internalType": "address",
          "name": "to",
          "type": "address"
        },
        {
          "internalType": "uint256",
          "name": "tokenId",
          "type": "uint256"
        }
      ],
      "name": "safeTransferFrom",
      "outputs": [],
      "stateMutability": "nonpayable",
      "type": "function"
    },
    {
      "inputs": [
        {
          "internalType": "address",
          "name": "from",
          "type": "address"
        },
        {
          "internalType": "address",
          "name": "to",
          "type": "address"
        },
        {
          "internalType": "uint256",
          "name": "tokenId",
          "type": "uint256"
        },
        {
          "internalType": "bytes",
          "name": "data",
          "type": "bytes"
        }
      ],
      "name": "safeTransferFrom",
      "outputs": [],
      "stateMutability": "nonpayable",
      "type": "function"
    },
    {
      "inputs": [
        {
          "internalType": "address",
          "name": "operator",
          "type": "address"
        },
        {
          "internalType": "bool",
          "name": "approved",
          "type": "bool"
        }
      ],
      "name": "setApprovalForAll",
      "outputs": [],
      "stateMutability": "nonpayable",
      "type": "function"
    },
    {
      "inputs": [
        {
          "internalType": "bytes4",
          "name": "interfaceId",
          "type": "bytes4"
        }
      ],
      "name": "supportsInterface",
      "outputs": [
        {
          "internalType": "bool",
          "name": "",
          "type": "bool"
        }
      ],
      "stateMutability": "view",
      "type": "function"
    },
    {
      "inputs": [],
      "name": "symbol",
      "outputs": [
        {
          "internalType": "string",
          "name": "",
          "type": "string"
        }
      ],
      "stateMutability": "view",
      "type": "function"
    },
    {
      "inputs": [
        {
          "internalType": "uint256",
          "name": "tokenId",
          "type": "uint256"
        }
      ],
      "name": "tokenURI",
      "outputs": [
        {
          "internalType": "string",
          "name": "",
          "type": "string"
        }
      ],
      "stateMutability": "view",
      "type": "function"
    },
    {
      "inputs": [
        {
          "internalType": "address",
          "name": "from",
          "type": "address"
        },
        {
          "internalType": "address",
          "name": "to",
          "type": "address"
        },
        {
          "internalType": "uint256",
          "name": "tokenId",
          "type": "uint256"
        }
      ],
      "name": "transferFrom",
      "outputs": [],
      "stateMutability": "nonpayable",
      "type": "function"
    },
    {
      "inputs": [],
      "name": "withdraw",
      "outputs": [],
      "stateMutability": "nonpayable",
      "type": "function"
    }
  ],
  "bytecode": "0x6101406040523480156200001257600080fd5b5060405162003c2838038062003c28833981810160405281019062000038919062000669565b6040518060400160405280600d81526020017f52616e646f6d446f67734e6674000000000000000000000000000000000000008152506040518060400160405280600481526020017f444f475300000000000000000000000000000000000000000000000000000000815250878073ffffffffffffffffffffffffffffffffffffffff1660808173ffffffffffffffffffffffffffffffffffffffff1681525050508160009081620000eb919062000965565b508060019081620000fd919062000965565b5050508573ffffffffffffffffffffffffffffffffffffffff1660a08173ffffffffffffffffffffffffffffffffffffffff16815250508467ffffffffffffffff1660c08167ffffffffffffffff16815250508360e081815250508263ffffffff166101008163ffffffff16815250506000600881905550816009906003620001889291906200019e565b5080610120818152505050505050505062000a4c565b828054828255906000526020600020908101928215620001eb579160200282015b82811115620001ea578251829081620001d9919062000965565b5091602001919060010190620001bf565b5b509050620001fa9190620001fe565b5090565b5b8082111562000222576000818162000218919062000226565b50600101620001ff565b5090565b50805462000234906200075e565b6000825580601f1062000248575062000269565b601f0160209004906000526020600020908101906200026891906200026c565b5b50565b5b80821115620002875760008160009055506001016200026d565b5090565b6000604051905090565b600080fd5b600080fd5b600073ffffffffffffffffffffffffffffffffffffffff82169050919050565b6000620002cc826200029f565b9050919050565b620002de81620002bf565b8114620002ea57600080fd5b50565b600081519050620002fe81620002d3565b92915050565b600067ffffffffffffffff82169050919050565b620003238162000304565b81146200032f57600080fd5b50565b600081519050620003438162000318565b92915050565b6000819050919050565b6200035e8162000349565b81146200036a57600080fd5b50565b6000815190506200037e8162000353565b92915050565b600063ffffffff82169050919050565b6200039f8162000384565b8114620003ab57600080fd5b50565b600081519050620003bf8162000394565b92915050565b600080fd5b6000601f19601f8301169050919050565b7f4e487b7100000000000000000000000000000000000000000000000000000000600052604160045260246000fd5b6200041582620003ca565b810181811067ffffffffffffffff82111715620004375762000436620003db565b5b80604052505050565b60006200044c6200028b565b90506200045a82826200040a565b919050565b600067ffffffffffffffff8211156200047d576200047c620003db565b5b602082029050919050565b600080fd5b600080fd5b600067ffffffffffffffff821115620004b057620004af620003db565b5b620004bb82620003ca565b9050602081019050919050565b60005b83811015620004e8578082015181840152602081019050620004cb565b60008484015250505050565b60006200050b620005058462000492565b62000440565b9050828152602081018484840111156200052a57620005296200048d565b5b62000537848285620004c8565b509392505050565b600082601f830112620005575762000556620003c5565b5b815162000569848260208601620004f4565b91505092915050565b60006200058962000583846200045f565b62000440565b90508060208402830185811115620005a657620005a562000488565b5b835b81811015620005f457805167ffffffffffffffff811115620005cf57620005ce620003c5565b5b808601620005de89826200053f565b85526020850194505050602081019050620005a8565b5050509392505050565b600082601f830112620006165762000615620003c5565b5b60036200062584828562000572565b91505092915050565b6000819050919050565b62000643816200062e565b81146200064f57600080fd5b50565b600081519050620006638162000638565b92915050565b60008060008060008060c0878903121562000689576200068862000295565b5b60006200069989828a01620002ed565b9650506020620006ac89828a0162000332565b9550506040620006bf89828a016200036d565b9450506060620006d289828a01620003ae565b935050608087015167ffffffffffffffff811115620006f657620006f56200029a565b5b6200070489828a01620005fe565b92505060a06200071789828a0162000652565b9150509295509295509295565b600081519050919050565b7f4e487b7100000000000000000000000000000000000000000000000000000000600052602260045260246000fd5b600060028204905060018216806200077757607f821691505b6020821081036200078d576200078c6200072f565b5b50919050565b60008190508160005260206000209050919050565b60006020601f8301049050919050565b600082821b905092915050565b600060088302620007f77fffffffffffffffffffffffffffffffffffffffffffffffffffffffffffffffff82620007b8565b620008038683620007b8565b95508019841693508086168417925050509392505050565b6000819050919050565b600062000846620008406200083a846200062e565b6200081b565b6200062e565b9050919050565b6000819050919050565b620008628362000825565b6200087a62000871826200084d565b848454620007c5565b825550505050565b600090565b6200089162000882565b6200089e81848462000857565b505050565b5b81811015620008c657620008ba60008262000887565b600181019050620008a4565b5050565b601f8211156200091557620008df8162000793565b620008ea84620007a8565b81016020851015620008fa578190505b620009126200090985620007a8565b830182620008a3565b50505b505050565b600082821c905092915050565b60006200093a600019846008026200091a565b1980831691505092915050565b600062000955838362000927565b9150826002028217905092915050565b620009708262000724565b67ffffffffffffffff8111156200098c576200098b620003db565b5b6200099882546200075e565b620009a5828285620008ca565b600060209050601f831160018114620009dd5760008415620009c8578287015190505b620009d4858262000947565b86555062000a44565b601f198416620009ed8662000793565b60005b8281101562000a1757848901518255600182019150602085019450602081019050620009f0565b8683101562000a37578489015162000a33601f89168262000927565b8355505b6001600288020188555050505b505050505050565b60805160a05160c05160e051610100516101205161317e62000aaa60003960008181610c070152610d5f01526000610e3901526000610df501526000610e1601526000610db90152600081816106be0152610712015261317e6000f3fe6080604052600436106101405760003560e01c806370a08231116100b6578063a22cb4651161006f578063a22cb46514610470578063a36f573b14610499578063aa152491146104d6578063b88d4fde146104f4578063c87b56dd1461051d578063e985e9c51461055a57610140565b806370a082311461034a57806373d9aa2b146103875780637a5caab3146103c4578063893d20e8146103ef5780638a8572011461041a57806395d89b411461044557610140565b806323b872dd1161010857806323b872dd1461023c5780633af25975146102655780633ccfd60b146102a257806342842e0e146102b95780636352211e146102e25780636e02007d1461031f57610140565b806301ffc9a71461014557806306fdde0314610182578063081812fc146101ad578063095ea7b3146101ea5780631fe543e314610213575b600080fd5b34801561015157600080fd5b5061016c6004803603810190610167919061227b565b610597565b60405161017991906122c3565b60405180910390f35b34801561018e57600080fd5b506101976105f8565b6040516101a4919061236e565b60405180910390f35b3480156101b957600080fd5b506101d460048036038101906101cf91906123c6565b61068a565b6040516101e19190612434565b60405180910390f35b3480156101f657600080fd5b50610211600480360381019061020c919061247b565b6106a6565b005b34801561021f57600080fd5b5061023a60048036038101906102359190612603565b6106bc565b005b34801561024857600080fd5b50610263600480360381019061025e919061265f565b61077c565b005b34801561027157600080fd5b5061028c600480360381019061028791906123c6565b61087e565b604051610299919061236e565b60405180910390f35b3480156102ae57600080fd5b506102b761092e565b005b3480156102c557600080fd5b506102e060048036038101906102db919061265f565b610a46565b005b3480156102ee57600080fd5b50610309600480360381019061030491906123c6565b610a66565b6040516103169190612434565b60405180910390f35b34801561032b57600080fd5b50610334610a78565b60405161034191906126c1565b60405180910390f35b34801561035657600080fd5b50610371600480360381019061036c91906126dc565b610a82565b60405161037e91906126c1565b60405180910390f35b34801561039357600080fd5b506103ae60048036038101906103a991906123c6565b610b3c565b6040516103bb9190612780565b60405180910390f35b3480156103d057600080fd5b506103d9610c03565b6040516103e691906126c1565b60405180910390f35b3480156103fb57600080fd5b50610404610c2b565b6040516104119190612434565b60405180910390f35b34801561042657600080fd5b5061042f610c55565b60405161043c9190612846565b60405180910390f35b34801561045157600080fd5b5061045a610c80565b604051610467919061236e565b60405180910390f35b34801561047c57600080fd5b506104976004803603810190610492919061288d565b610d12565b005b3480156104a557600080fd5b506104c060048036038101906104bb91906123c6565b610d28565b6040516104cd9190612434565b60405180910390f35b6104de610d5b565b6040516104eb91906126c1565b60405180910390f35b34801561050057600080fd5b5061051b60048036038101906105169190612982565b610f58565b005b34801561052957600080fd5b50610544600480360381019061053f91906123c6565b610f75565b604051610551919061236e565b60405180910390f35b34801561056657600080fd5b50610581600480360381019061057c9190612a05565b611088565b60405161058e91906122c3565b60405180910390f35b6000634906490660e01b7bffffffffffffffffffffffffffffffffffffffffffffffffffffffff1916827bffffffffffffffffffffffffffffffffffffffffffffffffffffffff191614806105f157506105f08261111c565b5b9050919050565b60606000805461060790612a74565b80601f016020809104026020016040519081016040528092919081815260200182805461063390612a74565b80156106805780601f1061065557610100808354040283529160200191610680565b820191906000526020600020905b81548152906001019060200180831161066357829003601f168201915b5050505050905090565b6000610695826111fe565b5061069f82611286565b9050919050565b6106b882826106b36112c3565b6112cb565b5050565b7f000000000000000000000000000000000000000000000000000000000000000073ffffffffffffffffffffffffffffffffffffffff163373ffffffffffffffffffffffffffffffffffffffff161461076e57337f00000000000000000000000000000000000000000000000000000000000000006040517f1cf993f4000000000000000000000000000000000000000000000000000000008152600401610765929190612aa5565b60405180910390fd5b61077882826112dd565b5050565b600073ffffffffffffffffffffffffffffffffffffffff168273ffffffffffffffffffffffffffffffffffffffff16036107ee5760006040517f64a0ae920000000000000000000000000000000000000000000000000000000081526004016107e59190612434565b60405180910390fd5b600061080283836107fd6112c3565b61148c565b90508373ffffffffffffffffffffffffffffffffffffffff168173ffffffffffffffffffffffffffffffffffffffff1614610878578382826040517f64283d7b00000000000000000000000000000000000000000000000000000000815260040161086f93929190612ace565b60405180910390fd5b50505050565b60606009828154811061089457610893612b05565b5b9060005260206000200180546108a990612a74565b80601f01602080910402602001604051908101604052809291908181526020018280546108d590612a74565b80156109225780601f106108f757610100808354040283529160200191610922565b820191906000526020600020905b81548152906001019060200180831161090557829003601f168201915b50505050509050919050565b3373ffffffffffffffffffffffffffffffffffffffff1661094d610c2b565b73ffffffffffffffffffffffffffffffffffffffff161461099a576040517ff65f0ddd00000000000000000000000000000000000000000000000000000000815260040160405180910390fd5b600047905060003373ffffffffffffffffffffffffffffffffffffffff16826040516109c590612b65565b60006040518083038185875af1925050503d8060008114610a02576040519150601f19603f3d011682016040523d82523d6000602084013e610a07565b606091505b5050905080610a42576040517f9f96a15000000000000000000000000000000000000000000000000000000000815260040160405180910390fd5b5050565b610a6183838360405180602001604052806000815250610f58565b505050565b6000610a71826111fe565b9050919050565b6000600854905090565b60008073ffffffffffffffffffffffffffffffffffffffff168273ffffffffffffffffffffffffffffffffffffffff1603610af55760006040517f89c62b64000000000000000000000000000000000000000000000000000000008152600401610aec9190612434565b60405180910390fd5b600360008373ffffffffffffffffffffffffffffffffffffffff1673ffffffffffffffffffffffffffffffffffffffff168152602001908152602001600020549050919050565b600080610b47610c55565b90506000805b6003811015610bcb57818510158015610b7c5750828160038110610b7457610b73612b05565b5b602002015185105b15610b9e57806002811115610b9457610b93612709565b5b9350505050610bfe565b828160038110610bb157610bb0612b05565b5b602002015191508080610bc390612ba9565b915050610b4d565b506040517fe9636add00000000000000000000000000000000000000000000000000000000815260040160405180910390fd5b919050565b60007f0000000000000000000000000000000000000000000000000000000000000000905090565b6000600a60009054906101000a900473ffffffffffffffffffffffffffffffffffffffff16905090565b610c5d6121ed565b6040518060600160405280600a8152602001601e81526020016064815250905090565b606060018054610c8f90612a74565b80601f0160208091040260200160405190810160405280929190818152602001828054610cbb90612a74565b8015610d085780601f10610cdd57610100808354040283529160200191610d08565b820191906000526020600020905b815481529060010190602001808311610ceb57829003601f168201915b5050505050905090565b610d24610d1d6112c3565b83836116a6565b5050565b60076020528060005260406000206000915054906101000a900473ffffffffffffffffffffffffffffffffffffffff1681565b60007f0000000000000000000000000000000000000000000000000000000000000000341015610db7576040517f7bb4756200000000000000000000000000000000000000000000000000000000815260040160405180910390fd5b7f000000000000000000000000000000000000000000000000000000000000000073ffffffffffffffffffffffffffffffffffffffff16635d3b1d307f00000000000000000000000000000000000000000000000000000000000000007f000000000000000000000000000000000000000000000000000000000000000060037f000000000000000000000000000000000000000000000000000000000000000060016040518663ffffffff1660e01b8152600401610e7a959493929190612c69565b6020604051808303816000875af1158015610e99573d6000803e3d6000fd5b505050506040513d601f19601f82011682018060405250810190610ebd9190612cd1565b9050336007600083815260200190815260200160002060006101000a81548173ffffffffffffffffffffffffffffffffffffffff021916908373ffffffffffffffffffffffffffffffffffffffff1602179055503373ffffffffffffffffffffffffffffffffffffffff16817ff873236e6cc0ecc5be1a9a35c95ee5b8d1ac4cc7bfef0cc5060391d6cc98e26b60405160405180910390a390565b610f6384848461077c565b610f6f84848484611815565b50505050565b6060610f80826111fe565b506000600660008481526020019081526020016000208054610fa190612a74565b80601f0160208091040260200160405190810160405280929190818152602001828054610fcd90612a74565b801561101a5780601f10610fef5761010080835404028352916020019161101a565b820191906000526020600020905b815481529060010190602001808311610ffd57829003601f168201915b50505050509050600061102b6119cc565b90506000815103611040578192505050611083565b60008251111561107557808260405160200161105d929190612d3a565b60405160208183030381529060405292505050611083565b61107e846119e3565b925050505b919050565b6000600560008473ffffffffffffffffffffffffffffffffffffffff1673ffffffffffffffffffffffffffffffffffffffff16815260200190815260200160002060008373ffffffffffffffffffffffffffffffffffffffff1673ffffffffffffffffffffffffffffffffffffffff16815260200190815260200160002060009054906101000a900460ff16905092915050565b60007f80ac58cd000000000000000000000000000000000000000000000000000000007bffffffffffffffffffffffffffffffffffffffffffffffffffffffff1916827bffffffffffffffffffffffffffffffffffffffffffffffffffffffff191614806111e757507f5b5e139f000000000000000000000000000000000000000000000000000000007bffffffffffffffffffffffffffffffffffffffffffffffffffffffff1916827bffffffffffffffffffffffffffffffffffffffffffffffffffffffff1916145b806111f757506111f682611a4c565b5b9050919050565b60008061120a83611ab6565b9050600073ffffffffffffffffffffffffffffffffffffffff168173ffffffffffffffffffffffffffffffffffffffff160361127d57826040517f7e27328900000000000000000000000000000000000000000000000000000000815260040161127491906126c1565b60405180910390fd5b80915050919050565b60006004600083815260200190815260200160002060009054906101000a900473ffffffffffffffffffffffffffffffffffffffff169050919050565b600033905090565b6112d88383836001611af3565b505050565b60006007600084815260200190815260200160002060009054906101000a900473ffffffffffffffffffffffffffffffffffffffff169050600060085490506008600081548092919061132f90612ba9565b9190505550600060648460008151811061134c5761134b612b05565b5b602002602001015161135e9190612d8d565b9050600061136b82610b3c565b90506113778484611cb8565b6114398360098360028111156113905761138f612709565b5b815481106113a1576113a0612b05565b5b9060005260206000200180546113b690612a74565b80601f01602080910402602001604051908101604052809291908181526020018280546113e290612a74565b801561142f5780601f106114045761010080835404028352916020019161142f565b820191906000526020600020905b81548152906001019060200180831161141257829003601f168201915b5050505050611cd6565b80600281111561144c5761144b612709565b5b837f826d84de86b9d47351ad75c90b9a8b7211e761e448ccd64623fc26341dd0b8dc8660405161147c9190612434565b60405180910390a3505050505050565b60008061149884611ab6565b9050600073ffffffffffffffffffffffffffffffffffffffff168373ffffffffffffffffffffffffffffffffffffffff16146114da576114d9818486611d32565b5b600073ffffffffffffffffffffffffffffffffffffffff168173ffffffffffffffffffffffffffffffffffffffff161461156b5761151c600085600080611af3565b6001600360008373ffffffffffffffffffffffffffffffffffffffff1673ffffffffffffffffffffffffffffffffffffffff168152602001908152602001600020600082825403925050819055505b600073ffffffffffffffffffffffffffffffffffffffff168573ffffffffffffffffffffffffffffffffffffffff16146115ee576001600360008773ffffffffffffffffffffffffffffffffffffffff1673ffffffffffffffffffffffffffffffffffffffff168152602001908152602001600020600082825401925050819055505b846002600086815260200190815260200160002060006101000a81548173ffffffffffffffffffffffffffffffffffffffff021916908373ffffffffffffffffffffffffffffffffffffffff160217905550838573ffffffffffffffffffffffffffffffffffffffff168273ffffffffffffffffffffffffffffffffffffffff167fddf252ad1be2c89b69c2b068fc378daa952ba7f163c4a11628f55a4df523b3ef60405160405180910390a4809150509392505050565b600073ffffffffffffffffffffffffffffffffffffffff168273ffffffffffffffffffffffffffffffffffffffff160361171757816040517f5b08ba1800000000000000000000000000000000000000000000000000000000815260040161170e9190612434565b60405180910390fd5b80600560008573ffffffffffffffffffffffffffffffffffffffff1673ffffffffffffffffffffffffffffffffffffffff16815260200190815260200160002060008473ffffffffffffffffffffffffffffffffffffffff1673ffffffffffffffffffffffffffffffffffffffff16815260200190815260200160002060006101000a81548160ff0219169083151502179055508173ffffffffffffffffffffffffffffffffffffffff168373ffffffffffffffffffffffffffffffffffffffff167f17307eab39ab6107e8899845ad3d59bd9653f200f220920489ca2b5937696c318360405161180891906122c3565b60405180910390a3505050565b60008373ffffffffffffffffffffffffffffffffffffffff163b11156119c6578273ffffffffffffffffffffffffffffffffffffffff1663150b7a026118596112c3565b8685856040518563ffffffff1660e01b815260040161187b9493929190612e13565b6020604051808303816000875af19250505080156118b757506040513d601f19601f820116820180604052508101906118b49190612e74565b60015b61193b573d80600081146118e7576040519150601f19603f3d011682016040523d82523d6000602084013e6118ec565b606091505b50600081510361193357836040517f64a0ae9200000000000000000000000000000000000000000000000000000000815260040161192a9190612434565b60405180910390fd5b805181602001fd5b63150b7a0260e01b7bffffffffffffffffffffffffffffffffffffffffffffffffffffffff1916817bffffffffffffffffffffffffffffffffffffffffffffffffffffffff1916146119c457836040517f64a0ae920000000000000000000000000000000000000000000000000000000081526004016119bb9190612434565b60405180910390fd5b505b50505050565b606060405180602001604052806000815250905090565b60606119ee826111fe565b5060006119f96119cc565b90506000815111611a195760405180602001604052806000815250611a44565b80611a2384611df6565b604051602001611a34929190612d3a565b6040516020818303038152906040525b915050919050565b60007f01ffc9a7000000000000000000000000000000000000000000000000000000007bffffffffffffffffffffffffffffffffffffffffffffffffffffffff1916827bffffffffffffffffffffffffffffffffffffffffffffffffffffffff1916149050919050565b60006002600083815260200190815260200160002060009054906101000a900473ffffffffffffffffffffffffffffffffffffffff169050919050565b8080611b2c5750600073ffffffffffffffffffffffffffffffffffffffff168273ffffffffffffffffffffffffffffffffffffffff1614155b15611c60576000611b3c846111fe565b9050600073ffffffffffffffffffffffffffffffffffffffff168373ffffffffffffffffffffffffffffffffffffffff1614158015611ba757508273ffffffffffffffffffffffffffffffffffffffff168173ffffffffffffffffffffffffffffffffffffffff1614155b8015611bba5750611bb88184611088565b155b15611bfc57826040517fa9fbf51f000000000000000000000000000000000000000000000000000000008152600401611bf39190612434565b60405180910390fd5b8115611c5e57838573ffffffffffffffffffffffffffffffffffffffff168273ffffffffffffffffffffffffffffffffffffffff167f8c5be1e5ebec7d5bd14f71427d1e84f3dd0314c0f7b2291e5b200ac8c7c3b92560405160405180910390a45b505b836004600085815260200190815260200160002060006101000a81548173ffffffffffffffffffffffffffffffffffffffff021916908373ffffffffffffffffffffffffffffffffffffffff16021790555050505050565b611cd2828260405180602001604052806000815250611ec4565b5050565b80600660008481526020019081526020016000209081611cf6919061304d565b507ff8e1a15aba9398e019f0b49df1a4fde98ee17ae345cb5f6b5e2c27f5033e8ce782604051611d2691906126c1565b60405180910390a15050565b611d3d838383611ee0565b611df157600073ffffffffffffffffffffffffffffffffffffffff168373ffffffffffffffffffffffffffffffffffffffff1603611db257806040517f7e273289000000000000000000000000000000000000000000000000000000008152600401611da991906126c1565b60405180910390fd5b81816040517f177e802f000000000000000000000000000000000000000000000000000000008152600401611de892919061311f565b60405180910390fd5b505050565b606060006001611e0584611fa1565b01905060008167ffffffffffffffff811115611e2457611e236124c0565b5b6040519080825280601f01601f191660200182016040528015611e565781602001600182028036833780820191505090505b509050600082602001820190505b600115611eb9578080600190039150507f3031323334353637383961626364656600000000000000000000000000000000600a86061a8153600a8581611ead57611eac612d5e565b5b04945060008503611e64575b819350505050919050565b611ece83836120f4565b611edb6000848484611815565b505050565b60008073ffffffffffffffffffffffffffffffffffffffff168373ffffffffffffffffffffffffffffffffffffffff1614158015611f9857508273ffffffffffffffffffffffffffffffffffffffff168473ffffffffffffffffffffffffffffffffffffffff161480611f595750611f588484611088565b5b80611f9757508273ffffffffffffffffffffffffffffffffffffffff16611f7f83611286565b73ffffffffffffffffffffffffffffffffffffffff16145b5b90509392505050565b600080600090507a184f03e93ff9f4daa797ed6e38ed64bf6a1f0100000000000000008310611fff577a184f03e93ff9f4daa797ed6e38ed64bf6a1f0100000000000000008381611ff557611ff4612d5e565b5b0492506040810190505b6d04ee2d6d415b85acef8100000000831061203c576d04ee2d6d415b85acef8100000000838161203257612031612d5e565b5b0492506020810190505b662386f26fc10000831061206b57662386f26fc10000838161206157612060612d5e565b5b0492506010810190505b6305f5e1008310612094576305f5e100838161208a57612089612d5e565b5b0492506008810190505b61271083106120b95761271083816120af576120ae612d5e565b5b0492506004810190505b606483106120dc57606483816120d2576120d1612d5e565b5b0492506002810190505b600a83106120eb576001810190505b80915050919050565b600073ffffffffffffffffffffffffffffffffffffffff168273ffffffffffffffffffffffffffffffffffffffff16036121665760006040517f64a0ae9200000000000000000000000000000000000000000000000000000000815260040161215d9190612434565b60405180910390fd5b60006121748383600061148c565b9050600073ffffffffffffffffffffffffffffffffffffffff168173ffffffffffffffffffffffffffffffffffffffff16146121e85760006040517f73c6ac6e0000000000000000000000000000000000000000000000000000000081526004016121df9190612434565b60405180910390fd5b505050565b6040518060600160405280600390602082028036833780820191505090505090565b6000604051905090565b600080fd5b600080fd5b60007fffffffff0000000000000000000000000000000000000000000000000000000082169050919050565b61225881612223565b811461226357600080fd5b50565b6000813590506122758161224f565b92915050565b60006020828403121561229157612290612219565b5b600061229f84828501612266565b91505092915050565b60008115159050919050565b6122bd816122a8565b82525050565b60006020820190506122d860008301846122b4565b92915050565b600081519050919050565b600082825260208201905092915050565b60005b838110156123185780820151818401526020810190506122fd565b60008484015250505050565b6000601f19601f8301169050919050565b6000612340826122de565b61234a81856122e9565b935061235a8185602086016122fa565b61236381612324565b840191505092915050565b600060208201905081810360008301526123888184612335565b905092915050565b6000819050919050565b6123a381612390565b81146123ae57600080fd5b50565b6000813590506123c08161239a565b92915050565b6000602082840312156123dc576123db612219565b5b60006123ea848285016123b1565b91505092915050565b600073ffffffffffffffffffffffffffffffffffffffff82169050919050565b600061241e826123f3565b9050919050565b61242e81612413565b82525050565b60006020820190506124496000830184612425565b92915050565b61245881612413565b811461246357600080fd5b50565b6000813590506124758161244f565b92915050565b6000806040838503121561249257612491612219565b5b60006124a085828601612466565b92505060206124b1858286016123b1565b9150509250929050565b600080fd5b7f4e487b7100000000000000000000000000000000000000000000000000000000600052604160045260246000fd5b6124f882612324565b810181811067ffffffffffffffff82111715612517576125166124c0565b5b80604052505050565b600061252a61220f565b905061253682826124ef565b919050565b600067ffffffffffffffff821115612556576125556124c0565b5b602082029050602081019050919050565b600080fd5b600061257f61257a8461253b565b612520565b905080838252602082019050602084028301858111156125a2576125a1612567565b5b835b818110156125cb57806125b788826123b1565b8452602084019350506020810190506125a4565b5050509392505050565b600082601f8301126125ea576125e96124bb565b5b81356125fa84826020860161256c565b91505092915050565b6000806040838503121561261a57612619612219565b5b6000612628858286016123b1565b925050602083013567ffffffffffffffff8111156126495761264861221e565b5b612655858286016125d5565b9150509250929050565b60008060006060848603121561267857612677612219565b5b600061268686828701612466565b935050602061269786828701612466565b92505060406126a8868287016123b1565b9150509250925092565b6126bb81612390565b82525050565b60006020820190506126d660008301846126b2565b92915050565b6000602082840312156126f2576126f1612219565b5b600061270084828501612466565b91505092915050565b7f4e487b7100000000000000000000000000000000000000000000000000000000600052602160045260246000fd5b6003811061274957612748612709565b5b50565b600081905061275a82612738565b919050565b600061276a8261274c565b9050919050565b61277a8161275f565b82525050565b60006020820190506127956000830184612771565b92915050565b600060039050919050565b600081905092915050565b6000819050919050565b6127c481612390565b82525050565b60006127d683836127bb565b60208301905092915050565b6000602082019050919050565b6127f88161279b565b61280281846127a6565b925061280d826127b1565b8060005b8381101561283e57815161282587826127ca565b9650612830836127e2565b925050600181019050612811565b505050505050565b600060608201905061285b60008301846127ef565b92915050565b61286a816122a8565b811461287557600080fd5b50565b60008135905061288781612861565b92915050565b600080604083850312156128a4576128a3612219565b5b60006128b285828601612466565b92505060206128c385828601612878565b9150509250929050565b600080fd5b600067ffffffffffffffff8211156128ed576128ec6124c0565b5b6128f682612324565b9050602081019050919050565b82818337600083830152505050565b6000612925612920846128d2565b612520565b905082815260208101848484011115612941576129406128cd565b5b61294c848285612903565b509392505050565b600082601f830112612969576129686124bb565b5b8135612979848260208601612912565b91505092915050565b6000806000806080858703121561299c5761299b612219565b5b60006129aa87828801612466565b94505060206129bb87828801612466565b93505060406129cc878288016123b1565b925050606085013567ffffffffffffffff8111156129ed576129ec61221e565b5b6129f987828801612954565b91505092959194509250565b60008060408385031215612a1c57612a1b612219565b5b6000612a2a85828601612466565b9250506020612a3b85828601612466565b9150509250929050565b7f4e487b7100000000000000000000000000000000000000000000000000000000600052602260045260246000fd5b60006002820490506001821680612a8c57607f821691505b602082108103612a9f57612a9e612a45565b5b50919050565b6000604082019050612aba6000830185612425565b612ac76020830184612425565b9392505050565b6000606082019050612ae36000830186612425565b612af060208301856126b2565b612afd6040830184612425565b949350505050565b7f4e487b7100000000000000000000000000000000000000000000000000000000600052603260045260246000fd5b600081905092915050565b50565b6000612b4f600083612b34565b9150612b5a82612b3f565b600082019050919050565b6000612b7082612b42565b9150819050919050565b7f4e487b7100000000000000000000000000000000000000000000000000000000600052601160045260246000fd5b6000612bb482612390565b91507fffffffffffffffffffffffffffffffffffffffffffffffffffffffffffffffff8203612be657612be5612b7a565b5b600182019050919050565b6000819050919050565b612c0481612bf1565b82525050565b600067ffffffffffffffff82169050919050565b612c2781612c0a565b82525050565b600061ffff82169050919050565b612c4481612c2d565b82525050565b600063ffffffff82169050919050565b612c6381612c4a565b82525050565b600060a082019050612c7e6000830188612bfb565b612c8b6020830187612c1e565b612c986040830186612c3b565b612ca56060830185612c5a565b612cb26080830184612c5a565b9695505050505050565b600081519050612ccb8161239a565b92915050565b600060208284031215612ce757612ce6612219565b5b6000612cf584828501612cbc565b91505092915050565b600081905092915050565b6000612d14826122de565b612d1e8185612cfe565b9350612d2e8185602086016122fa565b80840191505092915050565b6000612d468285612d09565b9150612d528284612d09565b91508190509392505050565b7f4e487b7100000000000000000000000000000000000000000000000000000000600052601260045260246000fd5b6000612d9882612390565b9150612da383612390565b925082612db357612db2612d5e565b5b828206905092915050565b600081519050919050565b600082825260208201905092915050565b6000612de582612dbe565b612def8185612dc9565b9350612dff8185602086016122fa565b612e0881612324565b840191505092915050565b6000608082019050612e286000830187612425565b612e356020830186612425565b612e4260408301856126b2565b8181036060830152612e548184612dda565b905095945050505050565b600081519050612e6e8161224f565b92915050565b600060208284031215612e8a57612e89612219565b5b6000612e9884828501612e5f565b91505092915050565b60008190508160005260206000209050919050565b60006020601f8301049050919050565b600082821b905092915050565b600060088302612f037fffffffffffffffffffffffffffffffffffffffffffffffffffffffffffffffff82612ec6565b612f0d8683612ec6565b95508019841693508086168417925050509392505050565b6000819050919050565b6000612f4a612f45612f4084612390565b612f25565b612390565b9050919050565b6000819050919050565b612f6483612f2f565b612f78612f7082612f51565b848454612ed3565b825550505050565b600090565b612f8d612f80565b612f98818484612f5b565b505050565b5b81811015612fbc57612fb1600082612f85565b600181019050612f9e565b5050565b601f82111561300157612fd281612ea1565b612fdb84612eb6565b81016020851015612fea578190505b612ffe612ff685612eb6565b830182612f9d565b50505b505050565b600082821c905092915050565b600061302460001984600802613006565b1980831691505092915050565b600061303d8383613013565b9150826002028217905092915050565b613056826122de565b67ffffffffffffffff81111561306f5761306e6124c0565b5b6130798254612a74565b613084828285612fc0565b600060209050601f8311600181146130b757600084156130a5578287015190505b6130af8582613031565b865550613117565b601f1984166130c586612ea1565b60005b828110156130ed578489015182556001820191506020850194506020810190506130c8565b8683101561310a5784890151613106601f891682613013565b8355505b6001600288020188555050505b505050505050565b60006040820190506131346000830185612425565b61314160208301846126b2565b939250505056fea2646970667358221220175ba9faca05943752d45f45c472cadd92376058ab0327c702fe39a79fa8a48764736f6c63430008140033",
  "linkReferences": {},
  "deployedLinkReferences": {}
}