{
  "_format": "hh-sol-artifact-1",
  "contractName": "DynamicSvgNft",
  "sourceName": "contracts/DynamicSvgNft.sol",
  "abi": [
    {
      "inputs": [
        {
          "internalType": "string",
          "name": "lowSvg",
          "type": "string"
        },
        {
          "internalType": "string",
          "name": "highSvg",
          "type": "string"
        },
        {
          "internalType": "address",
          "name": "priceFeedAddess",
          "type": "address"
        }
      ],
      "stateMutability": "nonpayable",
      "type": "constructor"
    },
    {
      "inputs": [],
      "name": "ERC721EnumerableForbiddenBatchMint",
      "type": "error"
    },
    {
      "inputs": [
        {
          "internalType": "address",
          "name": "sender",
          "type": "address"
        },
        {
          "internalType": "uint256",
          "name": "tokenId",
          "type": "uint256"
        },
        {
          "internalType": "address",
          "name": "owner",
          "type": "address"
        }
      ],
      "name": "ERC721IncorrectOwner",
      "type": "error"
    },
    {
      "inputs": [
        {
          "internalType": "address",
          "name": "operator",
          "type": "address"
        },
        {
          "internalType": "uint256",
          "name": "tokenId",
          "type": "uint256"
        }
      ],
      "name": "ERC721InsufficientApproval",
      "type": "error"
    },
    {
      "inputs": [
        {
          "internalType": "address",
          "name": "approver",
          "type": "address"
        }
      ],
      "name": "ERC721InvalidApprover",
      "type": "error"
    },
    {
      "inputs": [
        {
          "internalType": "address",
          "name": "operator",
          "type": "address"
        }
      ],
      "name": "ERC721InvalidOperator",
      "type": "error"
    },
    {
      "inputs": [
        {
          "internalType": "address",
          "name": "owner",
          "type": "address"
        }
      ],
      "name": "ERC721InvalidOwner",
      "type": "error"
    },
    {
      "inputs": [
        {
          "internalType": "address",
          "name": "receiver",
          "type": "address"
        }
      ],
      "name": "ERC721InvalidReceiver",
      "type": "error"
    },
    {
      "inputs": [
        {
          "internalType": "address",
          "name": "sender",
          "type": "address"
        }
      ],
      "name": "ERC721InvalidSender",
      "type": "error"
    },
    {
      "inputs": [
        {
          "internalType": "uint256",
          "name": "tokenId",
          "type": "uint256"
        }
      ],
      "name": "ERC721NonexistentToken",
      "type": "error"
    },
    {
      "inputs": [
        {
          "internalType": "address",
          "name": "owner",
          "type": "address"
        },
        {
          "internalType": "uint256",
          "name": "index",
          "type": "uint256"
        }
      ],
      "name": "ERC721OutOfBoundsIndex",
      "type": "error"
    },
    {
      "anonymous": false,
      "inputs": [
        {
          "indexed": true,
          "internalType": "address",
          "name": "owner",
          "type": "address"
        },
        {
          "indexed": true,
          "internalType": "address",
          "name": "approved",
          "type": "address"
        },
        {
          "indexed": true,
          "internalType": "uint256",
          "name": "tokenId",
          "type": "uint256"
        }
      ],
      "name": "Approval",
      "type": "event"
    },
    {
      "anonymous": false,
      "inputs": [
        {
          "indexed": true,
          "internalType": "address",
          "name": "owner",
          "type": "address"
        },
        {
          "indexed": true,
          "internalType": "address",
          "name": "operator",
          "type": "address"
        },
        {
          "indexed": false,
          "internalType": "bool",
          "name": "approved",
          "type": "bool"
        }
      ],
      "name": "ApprovalForAll",
      "type": "event"
    },
    {
      "anonymous": false,
      "inputs": [
        {
          "indexed": true,
          "internalType": "address",
          "name": "from",
          "type": "address"
        },
        {
          "indexed": true,
          "internalType": "address",
          "name": "to",
          "type": "address"
        },
        {
          "indexed": true,
          "internalType": "uint256",
          "name": "tokenId",
          "type": "uint256"
        }
      ],
      "name": "Transfer",
      "type": "event"
    },
    {
      "anonymous": false,
      "inputs": [
        {
          "indexed": true,
          "internalType": "uint256",
          "name": "tokenId",
          "type": "uint256"
        },
        {
          "indexed": false,
          "internalType": "int256",
          "name": "highValue",
          "type": "int256"
        }
      ],
      "name": "createdNft",
      "type": "event"
    },
    {
      "inputs": [
        {
          "internalType": "int256",
          "name": "highValue",
          "type": "int256"
        }
      ],
      "name": "MintNft",
      "outputs": [],
      "stateMutability": "nonpayable",
      "type": "function"
    },
    {
      "inputs": [
        {
          "internalType": "address",
          "name": "to",
          "type": "address"
        },
        {
          "internalType": "uint256",
          "name": "tokenId",
          "type": "uint256"
        }
      ],
      "name": "approve",
      "outputs": [],
      "stateMutability": "nonpayable",
      "type": "function"
    },
    {
      "inputs": [
        {
          "internalType": "address",
          "name": "owner",
          "type": "address"
        }
      ],
      "name": "balanceOf",
      "outputs": [
        {
          "internalType": "uint256",
          "name": "",
          "type": "uint256"
        }
      ],
      "stateMutability": "view",
      "type": "function"
    },
    {
      "inputs": [
        {
          "internalType": "string",
          "name": "svgUri",
          "type": "string"
        }
      ],
      "name": "convertSvgUrl",
      "outputs": [
        {
          "internalType": "string",
          "name": "",
          "type": "string"
        }
      ],
      "stateMutability": "pure",
      "type": "function"
    },
    {
      "inputs": [
        {
          "internalType": "uint256",
          "name": "tokenId",
          "type": "uint256"
        }
      ],
      "name": "getApproved",
      "outputs": [
        {
          "internalType": "address",
          "name": "",
          "type": "address"
        }
      ],
      "stateMutability": "view",
      "type": "function"
    },
    {
      "inputs": [
        {
          "internalType": "address",
          "name": "owner",
          "type": "address"
        },
        {
          "internalType": "address",
          "name": "operator",
          "type": "address"
        }
      ],
      "name": "isApprovedForAll",
      "outputs": [
        {
          "internalType": "bool",
          "name": "",
          "type": "bool"
        }
      ],
      "stateMutability": "view",
      "type": "function"
    },
    {
      "inputs": [],
      "name": "name",
      "outputs": [
        {
          "internalType": "string",
          "name": "",
          "type": "string"
        }
      ],
      "stateMutability": "view",
      "type": "function"
    },
    {
      "inputs": [
        {
          "internalType": "uint256",
          "name": "tokenId",
          "type": "uint256"
        }
      ],
      "name": "ownerOf",
      "outputs": [
        {
          "internalType": "address",
          "name": "",
          "type": "address"
        }
      ],
      "stateMutability": "view",
      "type": "function"
    },
    {
      "inputs": [
        {
          "internalType": "address",
          "name": "from",
          "type": "address"
        },
        {
          "internalType": "address",
          "name": "to",
          "type": "address"
        },
        {
          "internalType": "uint256",
          "name": "tokenId",
          "type": "uint256"
        }
      ],
      "name": "safeTransferFrom",
      "outputs": [],
      "stateMutability": "nonpayable",
      "type": "function"
    },
    {
      "inputs": [
        {
          "internalType": "address",
          "name": "from",
          "type": "address"
        },
        {
          "internalType": "address",
          "name": "to",
          "type": "address"
        },
        {
          "internalType": "uint256",
          "name": "tokenId",
          "type": "uint256"
        },
        {
          "internalType": "bytes",
          "name": "data",
          "type": "bytes"
        }
      ],
      "name": "safeTransferFrom",
      "outputs": [],
      "stateMutability": "nonpayable",
      "type": "function"
    },
    {
      "inputs": [
        {
          "internalType": "address",
          "name": "operator",
          "type": "address"
        },
        {
          "internalType": "bool",
          "name": "approved",
          "type": "bool"
        }
      ],
      "name": "setApprovalForAll",
      "outputs": [],
      "stateMutability": "nonpayable",
      "type": "function"
    },
    {
      "inputs": [
        {
          "internalType": "bytes4",
          "name": "interfaceId",
          "type": "bytes4"
        }
      ],
      "name": "supportsInterface",
      "outputs": [
        {
          "internalType": "bool",
          "name": "",
          "type": "bool"
        }
      ],
      "stateMutability": "view",
      "type": "function"
    },
    {
      "inputs": [],
      "name": "symbol",
      "outputs": [
        {
          "internalType": "string",
          "name": "",
          "type": "string"
        }
      ],
      "stateMutability": "view",
      "type": "function"
    },
    {
      "inputs": [
        {
          "internalType": "uint256",
          "name": "index",
          "type": "uint256"
        }
      ],
      "name": "tokenByIndex",
      "outputs": [
        {
          "internalType": "uint256",
          "name": "",
          "type": "uint256"
        }
      ],
      "stateMutability": "view",
      "type": "function"
    },
    {
      "inputs": [
        {
          "internalType": "address",
          "name": "owner",
          "type": "address"
        },
        {
          "internalType": "uint256",
          "name": "index",
          "type": "uint256"
        }
      ],
      "name": "tokenOfOwnerByIndex",
      "outputs": [
        {
          "internalType": "uint256",
          "name": "",
          "type": "uint256"
        }
      ],
      "stateMutability": "view",
      "type": "function"
    },
    {
      "inputs": [
        {
          "internalType": "uint256",
          "name": "tokenId",
          "type": "uint256"
        }
      ],
      "name": "tokenURI",
      "outputs": [
        {
          "internalType": "string",
          "name": "",
          "type": "string"
        }
      ],
      "stateMutability": "view",
      "type": "function"
    },
    {
      "inputs": [],
      "name": "totalSupply",
      "outputs": [
        {
          "internalType": "uint256",
          "name": "",
          "type": "uint256"
        }
      ],
      "stateMutability": "view",
      "type": "function"
    },
    {
      "inputs": [
        {
          "internalType": "address",
          "name": "from",
          "type": "address"
        },
        {
          "internalType": "address",
          "name": "to",
          "type": "address"
        },
        {
          "internalType": "uint256",
          "name": "tokenId",
          "type": "uint256"
        }
      ],
      "name": "transferFrom",
      "outputs": [],
      "stateMutability": "nonpayable",
      "type": "function"
    }
  ],
  "bytecode": "0x60a06040523480156200001157600080fd5b50604051620038173803806200381783398181016040528101906200003791906200057c565b6040518060400160405280600f81526020017f44796e616d696320537667204e667400000000000000000000000000000000008152506040518060400160405280600381526020017f44494e00000000000000000000000000000000000000000000000000000000008152508160009081620000b4919062000861565b508060019081620000c6919062000861565b5050506000600a81905550620000e2826200015260201b60201c565b600c9081620000f2919062000861565b5062000104836200015260201b60201c565b600b908162000114919062000861565b508073ffffffffffffffffffffffffffffffffffffffff1660808173ffffffffffffffffffffffffffffffffffffffff168152505050505062000ae7565b6060600062000188836040516020016200016d91906200098a565b604051602081830303815290604052620001eb60201b60201c565b90506040518060400160405280601b81526020017f646174613a696d6167652f7376672b786d6c3b6261736536342c20000000000081525081604051602001620001d4929190620009a3565b604051602081830303815290604052915050919050565b606060008251036200020f576040518060200160405280600081525090506200037f565b6000604051806060016040528060408152602001620037d76040913990506000600360028551620002419190620009fa565b6200024d919062000a64565b60046200025b919062000a9c565b905060006020826200026e9190620009fa565b67ffffffffffffffff8111156200028a5762000289620003b3565b5b6040519080825280601f01601f191660200182016040528015620002bd5781602001600182028036833780820191505090505b509050818152600183018586518101602084015b818310156200033a576003830192508251603f8160121c1685015160f81b8252600182019150603f81600c1c1685015160f81b8252600182019150603f8160061c1685015160f81b8252600182019150603f811685015160f81b825260018201915050620002d1565b600389510660018114620003575760028114620003685762000373565b613d3d60f01b600283035262000373565b603d60f81b60018303525b50505050508093505050505b919050565b6000604051905090565b600080fd5b600080fd5b600080fd5b600080fd5b6000601f19601f8301169050919050565b7f4e487b7100000000000000000000000000000000000000000000000000000000600052604160045260246000fd5b620003ed82620003a2565b810181811067ffffffffffffffff821117156200040f576200040e620003b3565b5b80604052505050565b60006200042462000384565b9050620004328282620003e2565b919050565b600067ffffffffffffffff821115620004555762000454620003b3565b5b6200046082620003a2565b9050602081019050919050565b60005b838110156200048d57808201518184015260208101905062000470565b60008484015250505050565b6000620004b0620004aa8462000437565b62000418565b905082815260208101848484011115620004cf57620004ce6200039d565b5b620004dc8482856200046d565b509392505050565b600082601f830112620004fc57620004fb62000398565b5b81516200050e84826020860162000499565b91505092915050565b600073ffffffffffffffffffffffffffffffffffffffff82169050919050565b6000620005448262000517565b9050919050565b620005568162000537565b81146200056257600080fd5b50565b60008151905062000576816200054b565b92915050565b6000806000606084860312156200059857620005976200038e565b5b600084015167ffffffffffffffff811115620005b957620005b862000393565b5b620005c786828701620004e4565b935050602084015167ffffffffffffffff811115620005eb57620005ea62000393565b5b620005f986828701620004e4565b92505060406200060c8682870162000565565b9150509250925092565b600081519050919050565b7f4e487b7100000000000000000000000000000000000000000000000000000000600052602260045260246000fd5b600060028204905060018216806200066957607f821691505b6020821081036200067f576200067e62000621565b5b50919050565b60008190508160005260206000209050919050565b60006020601f8301049050919050565b600082821b905092915050565b600060088302620006e97fffffffffffffffffffffffffffffffffffffffffffffffffffffffffffffffff82620006aa565b620006f58683620006aa565b95508019841693508086168417925050509392505050565b6000819050919050565b6000819050919050565b6000620007426200073c62000736846200070d565b62000717565b6200070d565b9050919050565b6000819050919050565b6200075e8362000721565b620007766200076d8262000749565b848454620006b7565b825550505050565b600090565b6200078d6200077e565b6200079a81848462000753565b505050565b5b81811015620007c257620007b660008262000783565b600181019050620007a0565b5050565b601f8211156200081157620007db8162000685565b620007e6846200069a565b81016020851015620007f6578190505b6200080e62000805856200069a565b8301826200079f565b50505b505050565b600082821c905092915050565b6000620008366000198460080262000816565b1980831691505092915050565b600062000851838362000823565b9150826002028217905092915050565b6200086c8262000616565b67ffffffffffffffff811115620008885762000887620003b3565b5b62000894825462000650565b620008a1828285620007c6565b600060209050601f831160018114620008d95760008415620008c4578287015190505b620008d0858262000843565b86555062000940565b601f198416620008e98662000685565b60005b828110156200091357848901518255600182019150602085019450602081019050620008ec565b868310156200093357848901516200092f601f89168262000823565b8355505b6001600288020188555050505b505050505050565b600081905092915050565b6000620009608262000616565b6200096c818562000948565b93506200097e8185602086016200046d565b80840191505092915050565b600062000998828462000953565b915081905092915050565b6000620009b1828562000953565b9150620009bf828462000953565b91508190509392505050565b7f4e487b7100000000000000000000000000000000000000000000000000000000600052601160045260246000fd5b600062000a07826200070d565b915062000a14836200070d565b925082820190508082111562000a2f5762000a2e620009cb565b5b92915050565b7f4e487b7100000000000000000000000000000000000000000000000000000000600052601260045260246000fd5b600062000a71826200070d565b915062000a7e836200070d565b92508262000a915762000a9062000a35565b5b828204905092915050565b600062000aa9826200070d565b915062000ab6836200070d565b925082820262000ac6816200070d565b9150828204841483151762000ae05762000adf620009cb565b5b5092915050565b608051612cd462000b0360003960006109fb0152612cd46000f3fe608060405234801561001057600080fd5b50600436106101165760003560e01c80636352211e116100a25780639e2f51f7116100715780639e2f51f714610319578063a22cb46514610335578063b88d4fde14610351578063c87b56dd1461036d578063e985e9c51461039d57610116565b80636352211e1461026b5780636ffc628b1461029b57806370a08231146102cb57806395d89b41146102fb57610116565b806318160ddd116100e957806318160ddd146101b557806323b872dd146101d35780632f745c59146101ef57806342842e0e1461021f5780634f6ccce71461023b57610116565b806301ffc9a71461011b57806306fdde031461014b578063081812fc14610169578063095ea7b314610199575b600080fd5b61013560048036038101906101309190611f27565b6103cd565b6040516101429190611f6f565b60405180910390f35b610153610447565b604051610160919061201a565b60405180910390f35b610183600480360381019061017e9190612072565b6104d9565b60405161019091906120e0565b60405180910390f35b6101b360048036038101906101ae9190612127565b6104f5565b005b6101bd61050b565b6040516101ca9190612176565b60405180910390f35b6101ed60048036038101906101e89190612191565b610518565b005b61020960048036038101906102049190612127565b61061a565b6040516102169190612176565b60405180910390f35b61023960048036038101906102349190612191565b6106c3565b005b61025560048036038101906102509190612072565b6106e3565b6040516102629190612176565b60405180910390f35b61028560048036038101906102809190612072565b610759565b60405161029291906120e0565b60405180910390f35b6102b560048036038101906102b09190612319565b61076b565b6040516102c2919061201a565b60405180910390f35b6102e560048036038101906102e09190612362565b6107f8565b6040516102f29190612176565b60405180910390f35b6103036108b2565b604051610310919061201a565b60405180910390f35b610333600480360381019061032e91906123c5565b610944565b005b61034f600480360381019061034a919061241e565b6109c2565b005b61036b600480360381019061036691906124ff565b6109d8565b005b61038760048036038101906103829190612072565b6109f5565b604051610394919061201a565b60405180910390f35b6103b760048036038101906103b29190612582565b610c1e565b6040516103c49190611f6f565b60405180910390f35b60007f780e9d63000000000000000000000000000000000000000000000000000000007bffffffffffffffffffffffffffffffffffffffffffffffffffffffff1916827bffffffffffffffffffffffffffffffffffffffffffffffffffffffff19161480610440575061043f82610cb2565b5b9050919050565b606060008054610456906125f1565b80601f0160208091040260200160405190810160405280929190818152602001828054610482906125f1565b80156104cf5780601f106104a4576101008083540402835291602001916104cf565b820191906000526020600020905b8154815290600101906020018083116104b257829003601f168201915b5050505050905090565b60006104e482610d94565b506104ee82610e1c565b9050919050565b6105078282610502610e59565b610e61565b5050565b6000600880549050905090565b600073ffffffffffffffffffffffffffffffffffffffff168273ffffffffffffffffffffffffffffffffffffffff160361058a5760006040517f64a0ae9200000000000000000000000000000000000000000000000000000000815260040161058191906120e0565b60405180910390fd5b600061059e8383610599610e59565b610e73565b90508373ffffffffffffffffffffffffffffffffffffffff168173ffffffffffffffffffffffffffffffffffffffff1614610614578382826040517f64283d7b00000000000000000000000000000000000000000000000000000000815260040161060b93929190612622565b60405180910390fd5b50505050565b6000610625836107f8565b821061066a5782826040517fa57d13dc000000000000000000000000000000000000000000000000000000008152600401610661929190612659565b60405180910390fd5b600660008473ffffffffffffffffffffffffffffffffffffffff1673ffffffffffffffffffffffffffffffffffffffff168152602001908152602001600020600083815260200190815260200160002054905092915050565b6106de838383604051806020016040528060008152506109d8565b505050565b60006106ed61050b565b8210610733576000826040517fa57d13dc00000000000000000000000000000000000000000000000000000000815260040161072a929190612659565b60405180910390fd5b6008828154811061074757610746612682565b5b90600052602060002001549050919050565b600061076482610d94565b9050919050565b606060006107978360405160200161078391906126ed565b604051602081830303815290604052610f90565b90506040518060400160405280601b81526020017f646174613a696d6167652f7376672b786d6c3b6261736536342c200000000000815250816040516020016107e1929190612704565b604051602081830303815290604052915050919050565b60008073ffffffffffffffffffffffffffffffffffffffff168273ffffffffffffffffffffffffffffffffffffffff160361086b5760006040517f89c62b6400000000000000000000000000000000000000000000000000000000815260040161086291906120e0565b60405180910390fd5b600360008373ffffffffffffffffffffffffffffffffffffffff1673ffffffffffffffffffffffffffffffffffffffff168152602001908152602001600020549050919050565b6060600180546108c1906125f1565b80601f01602080910402602001604051908101604052809291908181526020018280546108ed906125f1565b801561093a5780601f1061090f5761010080835404028352916020019161093a565b820191906000526020600020905b81548152906001019060200180831161091d57829003601f168201915b5050505050905090565b6000600a54905081600d6000600a5481526020019081526020016000208190555061096f3382611114565b6001600a5461097e9190612757565b600a81905550600a547f4b48ace0e3f0b19159e9b6372a959bf02276a6fe9b6b5feb316b469e41028bcf836040516109b6919061279a565b60405180910390a25050565b6109d46109cd610e59565b8383611132565b5050565b6109e3848484610518565b6109ef848484846112a1565b50505050565b606060007f000000000000000000000000000000000000000000000000000000000000000073ffffffffffffffffffffffffffffffffffffffff1663feaf968c6040518163ffffffff1660e01b815260040160a060405180830381865afa158015610a64573d6000803e3d6000fd5b505050506040513d601f19601f82011682018060405250810190610a889190612821565b5050509150506000600b8054610a9d906125f1565b80601f0160208091040260200160405190810160405280929190818152602001828054610ac9906125f1565b8015610b165780601f10610aeb57610100808354040283529160200191610b16565b820191906000526020600020905b815481529060010190602001808311610af957829003601f168201915b50505050509050600d6000858152602001908152602001600020548212610bc557600c8054610b44906125f1565b80601f0160208091040260200160405190810160405280929190818152602001828054610b70906125f1565b8015610bbd5780601f10610b9257610100808354040283529160200191610bbd565b820191906000526020600020905b815481529060010190602001808311610ba057829003601f168201915b505050505090505b610bcd611458565b610bf582604051602001610be19190612a3e565b604051602081830303815290604052610f90565b604051602001610c06929190612704565b60405160208183030381529060405292505050919050565b6000600560008473ffffffffffffffffffffffffffffffffffffffff1673ffffffffffffffffffffffffffffffffffffffff16815260200190815260200160002060008373ffffffffffffffffffffffffffffffffffffffff1673ffffffffffffffffffffffffffffffffffffffff16815260200190815260200160002060009054906101000a900460ff16905092915050565b60007f80ac58cd000000000000000000000000000000000000000000000000000000007bffffffffffffffffffffffffffffffffffffffffffffffffffffffff1916827bffffffffffffffffffffffffffffffffffffffffffffffffffffffff19161480610d7d57507f5b5e139f000000000000000000000000000000000000000000000000000000007bffffffffffffffffffffffffffffffffffffffffffffffffffffffff1916827bffffffffffffffffffffffffffffffffffffffffffffffffffffffff1916145b80610d8d5750610d8c82611495565b5b9050919050565b600080610da0836114ff565b9050600073ffffffffffffffffffffffffffffffffffffffff168173ffffffffffffffffffffffffffffffffffffffff1603610e1357826040517f7e273289000000000000000000000000000000000000000000000000000000008152600401610e0a9190612176565b60405180910390fd5b80915050919050565b60006004600083815260200190815260200160002060009054906101000a900473ffffffffffffffffffffffffffffffffffffffff169050919050565b600033905090565b610e6e838383600161153c565b505050565b600080610e81858585611701565b9050600073ffffffffffffffffffffffffffffffffffffffff168173ffffffffffffffffffffffffffffffffffffffff1603610ec557610ec08461191b565b610f04565b8473ffffffffffffffffffffffffffffffffffffffff168173ffffffffffffffffffffffffffffffffffffffff1614610f0357610f028185611964565b5b5b600073ffffffffffffffffffffffffffffffffffffffff168573ffffffffffffffffffffffffffffffffffffffff1603610f4657610f4184611ac5565b610f85565b8473ffffffffffffffffffffffffffffffffffffffff168173ffffffffffffffffffffffffffffffffffffffff1614610f8457610f838585611b96565b5b5b809150509392505050565b60606000825103610fb25760405180602001604052806000815250905061110f565b6000604051806060016040528060408152602001612c5f6040913990506000600360028551610fe19190612757565b610feb9190612aa5565b6004610ff79190612ad6565b905060006020826110089190612757565b67ffffffffffffffff811115611021576110206121ee565b5b6040519080825280601f01601f1916602001820160405280156110535781602001600182028036833780820191505090505b509050818152600183018586518101602084015b818310156110ce576003830192508251603f8160121c1685015160f81b8252600182019150603f81600c1c1685015160f81b8252600182019150603f8160061c1685015160f81b8252600182019150603f811685015160f81b825260018201915050611067565b6003895106600181146110e857600281146110f857611103565b613d3d60f01b6002830352611103565b603d60f81b60018303525b50505050508093505050505b919050565b61112e828260405180602001604052806000815250611c21565b5050565b600073ffffffffffffffffffffffffffffffffffffffff168273ffffffffffffffffffffffffffffffffffffffff16036111a357816040517f5b08ba1800000000000000000000000000000000000000000000000000000000815260040161119a91906120e0565b60405180910390fd5b80600560008573ffffffffffffffffffffffffffffffffffffffff1673ffffffffffffffffffffffffffffffffffffffff16815260200190815260200160002060008473ffffffffffffffffffffffffffffffffffffffff1673ffffffffffffffffffffffffffffffffffffffff16815260200190815260200160002060006101000a81548160ff0219169083151502179055508173ffffffffffffffffffffffffffffffffffffffff168373ffffffffffffffffffffffffffffffffffffffff167f17307eab39ab6107e8899845ad3d59bd9653f200f220920489ca2b5937696c31836040516112949190611f6f565b60405180910390a3505050565b60008373ffffffffffffffffffffffffffffffffffffffff163b1115611452578273ffffffffffffffffffffffffffffffffffffffff1663150b7a026112e5610e59565b8685856040518563ffffffff1660e01b81526004016113079493929190612b6d565b6020604051808303816000875af192505050801561134357506040513d601f19601f820116820180604052508101906113409190612bce565b60015b6113c7573d8060008114611373576040519150601f19603f3d011682016040523d82523d6000602084013e611378565b606091505b5060008151036113bf57836040517f64a0ae920000000000000000000000000000000000000000000000000000000081526004016113b691906120e0565b60405180910390fd5b805181602001fd5b63150b7a0260e01b7bffffffffffffffffffffffffffffffffffffffffffffffffffffffff1916817bffffffffffffffffffffffffffffffffffffffffffffffffffffffff19161461145057836040517f64a0ae9200000000000000000000000000000000000000000000000000000000815260040161144791906120e0565b60405180910390fd5b505b50505050565b60606040518060400160405280601d81526020017f646174613a6170706c69636174696f6e2f6a736f6e3b6261736536342c000000815250905090565b60007f01ffc9a7000000000000000000000000000000000000000000000000000000007bffffffffffffffffffffffffffffffffffffffffffffffffffffffff1916827bffffffffffffffffffffffffffffffffffffffffffffffffffffffff1916149050919050565b60006002600083815260200190815260200160002060009054906101000a900473ffffffffffffffffffffffffffffffffffffffff169050919050565b80806115755750600073ffffffffffffffffffffffffffffffffffffffff168273ffffffffffffffffffffffffffffffffffffffff1614155b156116a957600061158584610d94565b9050600073ffffffffffffffffffffffffffffffffffffffff168373ffffffffffffffffffffffffffffffffffffffff16141580156115f057508273ffffffffffffffffffffffffffffffffffffffff168173ffffffffffffffffffffffffffffffffffffffff1614155b801561160357506116018184610c1e565b155b1561164557826040517fa9fbf51f00000000000000000000000000000000000000000000000000000000815260040161163c91906120e0565b60405180910390fd5b81156116a757838573ffffffffffffffffffffffffffffffffffffffff168273ffffffffffffffffffffffffffffffffffffffff167f8c5be1e5ebec7d5bd14f71427d1e84f3dd0314c0f7b2291e5b200ac8c7c3b92560405160405180910390a45b505b836004600085815260200190815260200160002060006101000a81548173ffffffffffffffffffffffffffffffffffffffff021916908373ffffffffffffffffffffffffffffffffffffffff16021790555050505050565b60008061170d846114ff565b9050600073ffffffffffffffffffffffffffffffffffffffff168373ffffffffffffffffffffffffffffffffffffffff161461174f5761174e818486611c3d565b5b600073ffffffffffffffffffffffffffffffffffffffff168173ffffffffffffffffffffffffffffffffffffffff16146117e05761179160008560008061153c565b6001600360008373ffffffffffffffffffffffffffffffffffffffff1673ffffffffffffffffffffffffffffffffffffffff168152602001908152602001600020600082825403925050819055505b600073ffffffffffffffffffffffffffffffffffffffff168573ffffffffffffffffffffffffffffffffffffffff1614611863576001600360008773ffffffffffffffffffffffffffffffffffffffff1673ffffffffffffffffffffffffffffffffffffffff168152602001908152602001600020600082825401925050819055505b846002600086815260200190815260200160002060006101000a81548173ffffffffffffffffffffffffffffffffffffffff021916908373ffffffffffffffffffffffffffffffffffffffff160217905550838573ffffffffffffffffffffffffffffffffffffffff168273ffffffffffffffffffffffffffffffffffffffff167fddf252ad1be2c89b69c2b068fc378daa952ba7f163c4a11628f55a4df523b3ef60405160405180910390a4809150509392505050565b6008805490506009600083815260200190815260200160002081905550600881908060018154018082558091505060019003906000526020600020016000909190919091505550565b600061196f836107f8565b9050600060076000848152602001908152602001600020549050818114611a54576000600660008673ffffffffffffffffffffffffffffffffffffffff1673ffffffffffffffffffffffffffffffffffffffff168152602001908152602001600020600084815260200190815260200160002054905080600660008773ffffffffffffffffffffffffffffffffffffffff1673ffffffffffffffffffffffffffffffffffffffff168152602001908152602001600020600084815260200190815260200160002081905550816007600083815260200190815260200160002081905550505b6007600084815260200190815260200160002060009055600660008573ffffffffffffffffffffffffffffffffffffffff1673ffffffffffffffffffffffffffffffffffffffff16815260200190815260200160002060008381526020019081526020016000206000905550505050565b60006001600880549050611ad99190612bfb565b9050600060096000848152602001908152602001600020549050600060088381548110611b0957611b08612682565b5b906000526020600020015490508060088381548110611b2b57611b2a612682565b5b906000526020600020018190555081600960008381526020019081526020016000208190555060096000858152602001908152602001600020600090556008805480611b7a57611b79612c2f565b5b6001900381819060005260206000200160009055905550505050565b60006001611ba3846107f8565b611bad9190612bfb565b905081600660008573ffffffffffffffffffffffffffffffffffffffff1673ffffffffffffffffffffffffffffffffffffffff168152602001908152602001600020600083815260200190815260200160002081905550806007600084815260200190815260200160002081905550505050565b611c2b8383611d01565b611c3860008484846112a1565b505050565b611c48838383611dfa565b611cfc57600073ffffffffffffffffffffffffffffffffffffffff168373ffffffffffffffffffffffffffffffffffffffff1603611cbd57806040517f7e273289000000000000000000000000000000000000000000000000000000008152600401611cb49190612176565b60405180910390fd5b81816040517f177e802f000000000000000000000000000000000000000000000000000000008152600401611cf3929190612659565b60405180910390fd5b505050565b600073ffffffffffffffffffffffffffffffffffffffff168273ffffffffffffffffffffffffffffffffffffffff1603611d735760006040517f64a0ae92000000000000000000000000000000000000000000000000000000008152600401611d6a91906120e0565b60405180910390fd5b6000611d8183836000610e73565b9050600073ffffffffffffffffffffffffffffffffffffffff168173ffffffffffffffffffffffffffffffffffffffff1614611df55760006040517f73c6ac6e000000000000000000000000000000000000000000000000000000008152600401611dec91906120e0565b60405180910390fd5b505050565b60008073ffffffffffffffffffffffffffffffffffffffff168373ffffffffffffffffffffffffffffffffffffffff1614158015611eb257508273ffffffffffffffffffffffffffffffffffffffff168473ffffffffffffffffffffffffffffffffffffffff161480611e735750611e728484610c1e565b5b80611eb157508273ffffffffffffffffffffffffffffffffffffffff16611e9983610e1c565b73ffffffffffffffffffffffffffffffffffffffff16145b5b90509392505050565b6000604051905090565b600080fd5b600080fd5b60007fffffffff0000000000000000000000000000000000000000000000000000000082169050919050565b611f0481611ecf565b8114611f0f57600080fd5b50565b600081359050611f2181611efb565b92915050565b600060208284031215611f3d57611f3c611ec5565b5b6000611f4b84828501611f12565b91505092915050565b60008115159050919050565b611f6981611f54565b82525050565b6000602082019050611f846000830184611f60565b92915050565b600081519050919050565b600082825260208201905092915050565b60005b83811015611fc4578082015181840152602081019050611fa9565b60008484015250505050565b6000601f19601f8301169050919050565b6000611fec82611f8a565b611ff68185611f95565b9350612006818560208601611fa6565b61200f81611fd0565b840191505092915050565b600060208201905081810360008301526120348184611fe1565b905092915050565b6000819050919050565b61204f8161203c565b811461205a57600080fd5b50565b60008135905061206c81612046565b92915050565b60006020828403121561208857612087611ec5565b5b60006120968482850161205d565b91505092915050565b600073ffffffffffffffffffffffffffffffffffffffff82169050919050565b60006120ca8261209f565b9050919050565b6120da816120bf565b82525050565b60006020820190506120f560008301846120d1565b92915050565b612104816120bf565b811461210f57600080fd5b50565b600081359050612121816120fb565b92915050565b6000806040838503121561213e5761213d611ec5565b5b600061214c85828601612112565b925050602061215d8582860161205d565b9150509250929050565b6121708161203c565b82525050565b600060208201905061218b6000830184612167565b92915050565b6000806000606084860312156121aa576121a9611ec5565b5b60006121b886828701612112565b93505060206121c986828701612112565b92505060406121da8682870161205d565b9150509250925092565b600080fd5b600080fd5b7f4e487b7100000000000000000000000000000000000000000000000000000000600052604160045260246000fd5b61222682611fd0565b810181811067ffffffffffffffff82111715612245576122446121ee565b5b80604052505050565b6000612258611ebb565b9050612264828261221d565b919050565b600067ffffffffffffffff821115612284576122836121ee565b5b61228d82611fd0565b9050602081019050919050565b82818337600083830152505050565b60006122bc6122b784612269565b61224e565b9050828152602081018484840111156122d8576122d76121e9565b5b6122e384828561229a565b509392505050565b600082601f830112612300576122ff6121e4565b5b81356123108482602086016122a9565b91505092915050565b60006020828403121561232f5761232e611ec5565b5b600082013567ffffffffffffffff81111561234d5761234c611eca565b5b612359848285016122eb565b91505092915050565b60006020828403121561237857612377611ec5565b5b600061238684828501612112565b91505092915050565b6000819050919050565b6123a28161238f565b81146123ad57600080fd5b50565b6000813590506123bf81612399565b92915050565b6000602082840312156123db576123da611ec5565b5b60006123e9848285016123b0565b91505092915050565b6123fb81611f54565b811461240657600080fd5b50565b600081359050612418816123f2565b92915050565b6000806040838503121561243557612434611ec5565b5b600061244385828601612112565b925050602061245485828601612409565b9150509250929050565b600067ffffffffffffffff821115612479576124786121ee565b5b61248282611fd0565b9050602081019050919050565b60006124a261249d8461245e565b61224e565b9050828152602081018484840111156124be576124bd6121e9565b5b6124c984828561229a565b509392505050565b600082601f8301126124e6576124e56121e4565b5b81356124f684826020860161248f565b91505092915050565b6000806000806080858703121561251957612518611ec5565b5b600061252787828801612112565b945050602061253887828801612112565b93505060406125498782880161205d565b925050606085013567ffffffffffffffff81111561256a57612569611eca565b5b612576878288016124d1565b91505092959194509250565b6000806040838503121561259957612598611ec5565b5b60006125a785828601612112565b92505060206125b885828601612112565b9150509250929050565b7f4e487b7100000000000000000000000000000000000000000000000000000000600052602260045260246000fd5b6000600282049050600182168061260957607f821691505b60208210810361261c5761261b6125c2565b5b50919050565b600060608201905061263760008301866120d1565b6126446020830185612167565b61265160408301846120d1565b949350505050565b600060408201905061266e60008301856120d1565b61267b6020830184612167565b9392505050565b7f4e487b7100000000000000000000000000000000000000000000000000000000600052603260045260246000fd5b600081905092915050565b60006126c782611f8a565b6126d181856126b1565b93506126e1818560208601611fa6565b80840191505092915050565b60006126f982846126bc565b915081905092915050565b600061271082856126bc565b915061271c82846126bc565b91508190509392505050565b7f4e487b7100000000000000000000000000000000000000000000000000000000600052601160045260246000fd5b60006127628261203c565b915061276d8361203c565b925082820190508082111561278557612784612728565b5b92915050565b6127948161238f565b82525050565b60006020820190506127af600083018461278b565b92915050565b600069ffffffffffffffffffff82169050919050565b6127d4816127b5565b81146127df57600080fd5b50565b6000815190506127f1816127cb565b92915050565b60008151905061280681612399565b92915050565b60008151905061281b81612046565b92915050565b600080600080600060a0868803121561283d5761283c611ec5565b5b600061284b888289016127e2565b955050602061285c888289016127f7565b945050604061286d8882890161280c565b935050606061287e8882890161280c565b925050608061288f888289016127e2565b9150509295509295909350565b7f7b226e616d65223a222c20226465736372697074696f6e223a2244796e616d6960008201527f6320737667206e6674222c222c20226465736372697074696f6e223a22416e2060208201527f4e46542074686174206368616e676573206261736564206f6e2074686520436860408201527f61696e6c696e6b2046656564222c200000000000000000000000000000000000606082015250565b6000612944606f836126b1565b915061294f8261289c565b606f82019050919050565b7f2261747472696275746573223a205b7b2274726169745f74797065223a20226360008201527f6f6f6c6e657373222c202276616c7565223a203130307d5d2c2022696d61676560208201527f223a220000000000000000000000000000000000000000000000000000000000604082015250565b60006129dc6043836126b1565b91506129e78261295a565b604382019050919050565b7f227d000000000000000000000000000000000000000000000000000000000000600082015250565b6000612a286002836126b1565b9150612a33826129f2565b600282019050919050565b6000612a4982612937565b9150612a54826129cf565b9150612a6082846126bc565b9150612a6b82612a1b565b915081905092915050565b7f4e487b7100000000000000000000000000000000000000000000000000000000600052601260045260246000fd5b6000612ab08261203c565b9150612abb8361203c565b925082612acb57612aca612a76565b5b828204905092915050565b6000612ae18261203c565b9150612aec8361203c565b9250828202612afa8161203c565b91508282048414831517612b1157612b10612728565b5b5092915050565b600081519050919050565b600082825260208201905092915050565b6000612b3f82612b18565b612b498185612b23565b9350612b59818560208601611fa6565b612b6281611fd0565b840191505092915050565b6000608082019050612b8260008301876120d1565b612b8f60208301866120d1565b612b9c6040830185612167565b8181036060830152612bae8184612b34565b905095945050505050565b600081519050612bc881611efb565b92915050565b600060208284031215612be457612be3611ec5565b5b6000612bf284828501612bb9565b91505092915050565b6000612c068261203c565b9150612c118361203c565b9250828203905081811115612c2957612c28612728565b5b92915050565b7f4e487b7100000000000000000000000000000000000000000000000000000000600052603160045260246000fdfe4142434445464748494a4b4c4d4e4f505152535455565758595a6162636465666768696a6b6c6d6e6f707172737475767778797a303132333435363738392b2fa26469706673582212207acc76c97cfe58787ae56725bc143a1aa0e40e70c4cf0fbd5fc14e88dc295c4864736f6c634300081400334142434445464748494a4b4c4d4e4f505152535455565758595a6162636465666768696a6b6c6d6e6f707172737475767778797a303132333435363738392b2f",
  "linkReferences": {},
  "deployedLinkReferences": {}
}